S010000041546D65676133322E7372656380
S11300000C9434000C94E9030C9412040C943B04F7
S11300100C9446000C9446000C9446000C94460044
S11300200C9446000C9446000C9446000C94460034
S11300300C9446000C9446000C9446000C94460024
S11300400C9446000C9446000C9446000C94460014
S11300500C944600F1000E012B0148016501820158
S11300609F01BC01D901F60111241FBECFE5D8E0E0
S1130070DEBFCDBF20E0A0E6B0E001C01D92A736F0
S1130080B207E1F70E946E000C9479040C9400000E
S1130090CF93C6E081E00E94B6000E9473020E94E2
S11300A094002FEF89E698E1215080409040E1F7D9
S11300B000C000000E947C020E94990081E00E941E
S11300C0AA002FEF89E698E1215080409040E1F7A3
S11300D000C00000C150F1F6CF9108950E948F0036
S11300E081E00E949E000E94C20014C064EF71E08F
S11300F00E941302809160008F5F809360008436B9
S113010049F40E9448000E94990081E00E94B600D0
S11301101092600080916000843640F3FDCF61E06E
S113012083E20E948502089561E083E20E9437031E
S1130130089560E083E20E9437030895811105C0A9
S113014061E082E20E948502089561E081E20E94FA
S113015085020895811105C061E082E20E9437039F
S1130160089561E081E20E9437030895811105C07A
S113017060E082E20E943703089560E081E20E9419
S11301803703089561E08BE00E94850261E08CE012
S11301900E94850261E08DE00E94850261E08EE0AC
S11301A00E94850261E08FE00E94850261E080E1A7
S11301B00E94850261E081E10E94850261E084E29F
S11301C00E94850261E085E20E948502089590E024
S11301D08A30910508F026C1FC01E65DFF4F0C94BE
S11301E0640461E08BE00E94370361E08CE00E94CC
S11301F0370361E08DE00E94370361E08EE00E94E6
S1130200370361E08FE00E94370361E080E10E94E0
S1130210370360E081E10E943703089560E08BE0DA
S11302200E94370361E08CE00E94370361E08DE0B7
S11302300E94370360E08EE00E94370360E08FE0A5
S11302400E94370360E080E10E94370360E081E1AF
S11302500E943703089561E08BE00E94370361E058
S11302608CE00E94370360E08DE00E94370361E078
S11302708EE00E94370361E08FE00E94370360E064
S113028080E10E94370361E081E10E943703089511
S113029061E08BE00E94370361E08CE00E94370349
S11302A061E08DE00E94370361E08EE00E94370335
S11302B060E08FE00E94370360E080E10E94370332
S11302C061E081E10E943703089560E08BE00E94C1
S11302D0370361E08CE00E94370361E08DE00E9407
S11302E0370360E08EE00E94370360E08FE00E94F5
S11302F0370361E080E10E94370361E081E10E94FD
S11303003703089561E08BE00E94370360E08CE0DE
S11303100E94370361E08DE00E94370361E08EE0C4
S11303200E94370360E08FE00E94370361E080E1C0
S11303300E94370361E081E10E943703089561E080
S11303408BE00E94370360E08CE00E94370361E099
S11303508DE00E94370361E08EE00E94370361E084
S11303608FE00E94370361E080E10E94370361E07F
S113037081E10E943703089561E08BE00E94370316
S113038061E08CE00E94370361E08DE00E94370356
S113039060E08EE00E94370360E08FE00E94370344
S11303A060E080E10E94370360E081E10E9437034E
S11303B0089561E08BE00E94370361E08CE00E94C5
S11303C0370361E08DE00E94370361E08EE00E9414
S11303D0370361E08FE00E94370361E080E10E940F
S11303E0370361E081E10E943703089561E08BE007
S11303F00E94370361E08CE00E94370361E08DE0E6
S11304000E94370361E08EE00E94370360E08FE0D2
S11304100E94370361E080E10E94370361E081E1DB
S11304200E9437030895EF92FF920F931F93CF9387
S1130430DF939B010DEC809F012D1124102F169545
S113044016951695110F912F990F990F190F811B5E
S1130450182F069506950695ADECBCEC0E946A042F
S11304607C01F694E794F694E794F694E794F69472
S1130470E794E114F10441F1C0E0D0E061E084E2EA
S11304800E94370360E085E20E943703812F0E94B7
S1130490E7008FE39CE90197F1F700C0000060E0FA
S11304A084E20E94370361E085E20E943703802FD3
S11304B00E94E7008FE39CE90197F1F700C0000078
S11304C02196CE15DF05D1F660E084E20E94370361
S11304D060E085E20E943703DF91CF911F910F9175
S11304E0FF90EF90089561E084E20E94370361E099
S11304F085E20E943703089560E084E20E94370396
S113050060E085E20E94370308959DEC899F912D58
S11305101124969596959695990F292F220F220FBF
S1130520920F282F291B922F283008F098C02DEC09
S1130530829F812D11248695869586952FEF280F0D
S1130540243008F08EC0623008F08DC0823051F142
S113055018F4813041F089C0833009F442C08430FA
S113056009F45EC082C0613071F44AB321E030E026
S1130570B90102C0660F771F9A95E2F7CB01842B6D
S11305808ABB80E008954AB321E030E0B90102C09B
S1130590660F771F9A95E2F7CB01809584238ABB77
S11305A080E00895613071F447B321E030E0B9018F
S11305B002C0660F771F9A95E2F7CB01842B87BBA5
S11305C080E0089547B321E030E0B90102C0660F2E
S11305D0771F9A95E2F7CB018095842387BB80E04F
S11305E00895613071F444B321E030E0B90102C0F0
S11305F0660F771F9A95E2F7CB01842B84BB80E0CA
S1130600089544B321E030E0B90102C0660F771FBA
S11306109A95E2F7CB018095842384BB80E008950A
S1130620613071F441B321E030E0B90102C0660FDA
S1130630771F9A95E2F7CB01842B81BB80E0089564
S113064041B321E030E0B90102C0660F771F9A95EB
S1130650E2F7CB018095842381BB80E0089581E09B
S1130660089581E0089581E0089580E008959DEC67
S1130670899F912D1124969596959695990F292FDA
S1130680220F220F920F282F291B922F283008F0B7
S113069098C02DEC829F812D112486958695869590
S11306A02FEF280F243008F08EC0623008F08DC080
S11306B0823051F118F4813041F089C0833009F45B
S11306C042C0843009F45EC082C0613071F44BB31F
S11306D021E030E0B90102C0660F771F9A95E2F776
S11306E0CB01842B8BBB80E008954BB321E030E039
S11306F0B90102C0660F771F9A95E2F7CB01809586
S113070084238BBB80E00895613071F448B321E009
S113071030E0B90102C0660F771F9A95E2F7CB016A
S1130720842B88BB80E0089548B321E030E0B90110
S113073002C0660F771F9A95E2F7CB018095842358
S113074088BB80E00895613071F445B321E030E066
S1130750B90102C0660F771F9A95E2F7CB01842B8B
S113076085BB80E0089545B321E030E0B90102C0C3
S1130770660F771F9A95E2F7CB018095842385BB9A
S113078080E00895613071F442B321E030E0B901B2
S113079002C0660F771F9A95E2F7CB01842B82BBC8
S11307A080E0089542B321E030E0B90102C0660F51
S11307B0771F9A95E2F7CB018095842382BB80E072
S11307C0089581E0089581E0089581E0089580E02E
S11307D008951F920F920FB60F9211242F933F93F7
S11307E04F935F936F937F938F939F93AF93BF9335
S11307F0EF93FF93E0916100F0916200309709F06C
S11308000995FF91EF91BF91AF919F918F917F9146
S11308106F915F914F913F912F910F900FBE0F9069
S11308201F9018951F920F920FB60F9211242F93B9
S11308303F934F935F936F937F938F939F93AF9364
S1130840BF93EF93FF93E0916500F09166003097BA
S113085009F00995FF91EF91BF91AF919F918F910D
S11308607F916F915F914F913F912F910F900FBEA8
S11308700F901F9018951F920F920FB60F9211248C
S11308802F933F934F935F936F937F938F939F9394
S1130890AF93BF93EF93FF93E0916300F0916400F3
S11308A0309709F00995FF91EF91BF91AF919F9116
S11308B08F917F916F915F914F913F912F910F9005
S11308C00FBE0F901F901895EE0FFF1F0590F49127
S11308D0E02D0994A29FB001B39FC001A39F700DA6
S11308E0811D1124911DB29F700D811D1124911D34
S10908F00895F894FFCF07
S9030000FC
